:020000040800F2
:10000000201C0020E5020008C98A0008C94E00082B
:10001000098A00088D2800084DCD00080000000066
:1000200000000000000000000000000089A100089E
:10003000A928000800000000FD9100088DA100081B
:10004000FF020008FF020008FF020008FF0200088C
:10005000FF020008FF020008FF020008FF0200087C
:10006000FF020008FF020008FF020008FF0200086C
:10007000912800089D280008FF020008FF020008E0
:10008000FF020008FF020008FF020008FF0200084C
:10009000FF020008FF020008FF020008FF0200083C
:1000A000FF02000889C70008FF020008FF020008DD
:1000B000FF020008FF020008FF020008FF0200081C
:1000C000FF020008FF020008FF020008FF0200080C
:1000D000FF02000835CD0008FF02000841CD0008EE
:1000E000FF020008FF020008FF020008FF020008EC
:1000F000FF020008FF020008FF020008FF020008DC
:10010000FF020008FF020008FF020008FF020008CB
:10011000FF020008FF020008FF020008FF020008BB
:10012000FF020008FF020008FF020008FF020008AB
:1001300000F002F800F0C6F814A696E8000CB244ED
:10014000B344DA4501D100F0BDF8BAE80F000FA6BC
:1001500096E83000A5EB040504EB0607AAEB0704BC
:10016000A7F101074FEA15154FEA3414A4F1010471
:10017000AC4201D300F0A6F813F0010F18BFFB1A30
:1001800043F0010300F001F8DBE7184770F50000C9
:1001900090F500000A444FF0000C10F8013B13F0FA
:1001A000070408BF10F8014B1D1108BF10F8015BD0
:1001B000641E05D010F8016B641E01F8016BF9D1C3
:1001C00013F0080F1EBF10F8014BAD1C0C1B09D11A
:1001D0006D1E58BF01F801CBFAD505E014F8016B8C
:1001E00001F8016B6D1EF9D59142D6D3704700001E
:1001F000704700000023002400250026103A28BF85
:1002000078C1FBD8520728BF30C148BF0B60704788
:100210006E2900F01084702900F0778766290DF0B0
:100220004C8365290DF0498367290DF046836129C8
:100230000DF0458303681B0A28BF41F0800169293E
:1002400000F0C280642900F0BF80752900F0BC80F6
:100250006F2900F00587782900F04387E92900F02D
:100260009F86E42900F09C86F52900F09986EF2905
:1002700000F00287F82900F042870368DB0928BFF5
:1002800041F08001632900F02086732900F0258663
:10029000E32901F05781F32901F05C8100207047C8
:1002A0001FB500F03DFF0400002000210DF078FA9A
:1002B000401C6060002000210DF05CFAE0601FBD72
:1002C00010B510BD01F0E4F91146FFF7E9FF0CF09D
:1002D0003FFD01F00BFA03B4FFF7F2FF03BC01F09E
:1002E0004FFA00000948804709480047FEE7FEE74B
:1002F000FEE7FEE7FEE7FEE7FEE7FEE7FEE7FEE7D6
:1003000004480549054A064B704700003DA2000815
:100310003101000820160020201C00202018002099
:10032000201800201CB50C46064B7B446946009003
:10033000204600F0A8FD04460020694600F0B6FD06
:1003400020461CBD7F0B00000FB41CB5084B06AA4D
:100350007B4469460090059800F095FD0446002016
:10036000694600F0A3FD20461CBC5DF814FB0000AC
:10037000590B000070B50C460546012A05D02878B7
:10038000800600D5EA69002302E0012305E05B1C3A
:10039000934202D2E05C0028F9D1A869E618C01A9D
:1003A000A861286A18442862284600F0B2FA04E0DE
:1003B000D5E9012114F8010B9047B442F8D328463F
:1003C00000F0BDFA70BD00002DE9F04106460024A2
:1003D00010687529314616A510D000F0C1FA002822
:1003E00002DA404213A507E031688A0701D512A559
:1003F00002E0490704D511A5012401E000F0B9FA93
:1004000000210A2206F1240709E0B0FBF2FCB0FB50
:10041000F2F302FB1C00303078541846491C0028C7
:10042000F3D123462A463046BDE8F04100F0AABA8F
:10043000000000002D0000002B0000002000000044
:100440002DE9F05F894604464FF0000ADFF874B1E9
:10045000FB44C0F820A02046E1688847002874D0FB
:10046000252806D0D4E901219047206A401C20624B
:10047000F1E700265F462046E168884720280546C8
:1004800007DB312D05D2781910F8200C08B106438E
:10049000F1E7B00701D526F00406C4F81CA0002738
:1004A000C4F818A02A2D09D028460DF05BF938B3FE
:1004B00004EB8708303DC8F8185019E059F8041BC0
:1004C000204604EB87029161E1688847012F0546C9
:1004D00018D1E069002820DA26F020061DE0D8F8BF
:1004E000180000EB800005EB40003038C8F8180019
:1004F0002046E168884705460DF034F90028EED122
:10050000012F0AD02E2D08D12046E16888477F1C94
:100510000546022F46F02006C4DBA069002803DA56
:10052000404246F00106A061F00701D026F0100617
:100530006C2D0BD0682D09D04C2D39D06A2D35D0BB
:10054000742D35D07A2D33D016E038E0E1682F468F
:1005500020468847B842054609D16C2F26D04FF473
:100560008060E168064320468847054604E06C2F1A
:100570001AD04FF4807006430DB3A5F1410019283D
:1005800002D8203546F400664A46294620462660B1
:100590004E46FFF73DFE80B101280BD0F61D26F038
:1005A000070000F1080956E74020E4E78020D8E77B
:1005B0000020D6E706F104094DE7284652E7206AF5
:1005C000BDE8F09F6ED40000401ECAB210F8011FB3
:1005D0008A4202D00029F9D10020704730B5054683
:1005E0000B462A4613F8014B12F8010B08B1A04242
:1005F000F8D01CB1002802D06D1CF1E7284630BDB0
:1006000040EA010310B59B070FD1042A0DD310C88F
:1006100008C9121F9C42F8D020BA19BA884201D9E1
:10062000012010BD4FF0FF3010BD1AB1D30703D029
:10063000521C07E0002010BD10F8013B11F8014BDF
:100640001B1B07D110F8013B11F8014B1B1B01D1FB
:10065000921EF1D1184610BD40EA0103024630B5A2
:100660009B0710D14FF0013400E008C208C91D1BE0
:100670009D4315EAC41FF8D013F0FF0102F8011BD7
:100680000DD01B0AF8E711F8013B002B02F8013BE3
:1006900005D011F8013B002B02F8013BF3D130BD2E
:1006A00010B5431C02E010F8011B71B18107FAD1AB
:1006B0004FF0013202C88C1A8C4314EAC211F9D0EF
:1006C000C01A0A0603D0C01E10BDC01A10BD0A040D
:1006D00001D0801E10BD0902FCD0401E10BD40EAB2
:1006E000010370B59B072ED14FF00136042A2AD39F
:1006F00008C810C99D1B9D43121F15EAC61517D0C7
:10070000D8B2E1B2401A50EA056110D198B2A1B254
:10071000401A50EA05410AD123F07F4024F07F417E
:10072000401A50EA052102D1180EA0EB146070BDEA
:10073000A342DBD018BA21BA884201D9012070BD8A
:100740004FF0FF3070BD0AB9002070BD10F8013BBA
:1007500011F8014B63B1A3420AD1521E08D010F820
:10076000013B11F8014B1BB1A34201D1521EEDD147
:10077000181B70BD421E12F8013F002BFBD111F86F
:10078000013B002B02F8013BF9D17047032A40F2EC
:10079000308010F0030C00F0158011F8013BBCF123
:1007A000020F624498BF11F801CB00F8013B38BF3B
:1007B00011F8013BA2F1040298BF00F801CB38BF49
:1007C00000F8013B11F0030300F02580083AC0F067
:1007D000088051F8043B083A51F804CBA0E808100F
:1007E000F5E7121D5CBF51F8043B40F8043BAFF342
:1007F0000080D20724BF11F8013B11F801CB48BF9C
:1008000011F8012B24BF00F8013B00F801CB48BFD1
:1008100000F8012B704710B5203AC0F00B80B1E80A
:100820001850A0E81850B1E81850A0E81850203A25
:10083000BFF4F5AF5FEA027C24BFB1E81850A0E82E
:10084000185044BF18C918C0BDE810405FEA827C48
:1008500024BF51F8043B40F8043B08BF7047D2075F
:1008600028BF31F8023B48BF11F8012B28BF20F800
:10087000023B48BF00F8012B70474FF000020429EB
:10088000C0F0128010F0030C00F01B80CCF1040CBF
:10089000BCF1020F18BF00F8012BA8BF20F8022BF3
:1008A000A1EB0C0100F00DB85FEAC17C24BF00F899
:1008B000012B00F8012B48BF00F8012B70474FF0C7
:1008C000000200B5134694469646203922BFA0E8A0
:1008D0000C50A0E80C50B1F12001BFF4F7AF0907AC
:1008E00028BFA0E80C5048BF0CC05DF804EB89009D
:1008F00028BF40F8042B08BF704748BF20F8022BE0
:1009000011F0804F18BF00F8012B704770477047F7
:10091000704770B5044685690068C10601D5302668
:1009200000E02026C00707D070BDD4E90121304681
:100930009047206A401C20626D1EF6D570BD70B5D0
:10094000044685690078C00707D170BDD4E901214C
:1009500020209047206A401C20626D1EF6D570BD95
:1009600009684A0501D540B27047C905FCD500B2F7
:10097000704709684A0501D5C0B27047C905FCD562
:1009800080B270472DE9F0470D46994692460446DD
:1009900000F124080168880604D5E06921F01001FF
:1009A000216000E00120A84201DD471B00E0002794
:1009B000A1697A1902EB0900081AA0612078C00623
:1009C00002D42046FFF7A5FF002608E0D4E9012164
:1009D0001AF806009047206A401C761C20624E459B
:1009E000F4DB2078C0060AD52046FFF792FF06E028
:1009F000D4E9012130209047206A401C2062381E33
:100A0000A7F10107F4DC07E0D4E9012118F805009B
:100A10009047206A401C2062281EA5F10105F3DCE6
:100A20002046FFF78CFF2078000602D50220BDE8A3
:100A3000F0870120FBE711680268006A530501D5C1
:100A400008700AE0D30501D5088006E0130603D537
:100A5000C217C1E9000200E00860012070472DE9DB
:100A6000FF4F0C461E464FF0FF378BB0D2E9000116
:100A7000DDF860800A908A46C1F30A5505B93D4603
:100A8000002108464FF00000BAF1000F00F44000CA
:100A900005DA00EB80004FF4400101EA50004FEA14
:100AA0009059B9F1010F00DDB9460A9850EA4A00A1
:100AB0000ED044F61050A5F2FF3545432F14B8F17F
:100AC000000F1ED07542291E1EDDC9F100021CE078
:100AD000B8F1010F4FF0000001D0302103E0F243E4
:100AE00005E02154401CB042FBDB304600220021CF
:100AF00021540B99C1F80880C1E900200FB0BDE86E
:100B0000F08FBD1B6D1CDEE74A4600DA694206A87D
:100B100000F024FD06AB93E8070003AB83E8070071
:100B200050460A990CF042FA8DE80700A0F50050F3
:100B30001F3800900398002D0ADD42F21F014A463B
:100B40000844002303A9039068460CF0ABFC09E0BD
:100B5000A0F500504A461F38002303A903906846B9
:100B60000CF0B5FC8DE807000004000C03D04FF03A
:100B7000FF30410800E01046B8F1000F03D000221A
:100B8000009215461EE0751E05D400F0CDFA3032F5
:100B900062556D1EF9D5B3460122084302D00022EA
:100BA0007F1C04E02078302801D100227F1E002A1B
:100BB000099784D01DE0112D07DA00F0B5FA303224
:100BC00062556D1C50EA0102F5D1084302D000982D
:100BD000C8B10EE00021681E05E0235C625C63542E
:100BE0002254401E491C8142F7DBAB46A81B401E25
:100BF0000990002004F80B000B98099AC0F80880AF
:100C0000C0E9002B7AE711264FF0000857E72DE9DD
:100C1000F04F88460446D21D22F0070191B0D1E979
:100C20000001CDE90A010CF089FD02460B98C00FC6
:100C300001D02D2007E02068810701D52B2002E09C
:100C4000202101EAC000032A099001D0072A05DB10
:100C500003464146204600F02BFC0BE1207880063D
:100C600001D5E06900E00620B8F1650F814606D0A5
:100C7000B8F1660F18D0B8F1670F70D131E00020DD
:100C8000B9F1110F009001DB112301E009F101031B
:100C90000AAA01A90CA8FFF7E2FEDDE90C70002604
:100CA00009F10105834647E001204B4600904FF0D3
:100CB00000470AAA01A90CA8FFF7D1FEDDE90DB093
:100CC0000C995D46002610B909F101000D18B9EB29
:100CD000050003D4C0F1FF3609F10105A5EB0900B9
:100CE0002BE0B9F1010F01DA4FF001090020B9F151
:100CF000110F0090484601DD112300E003460AAAC7
:100D000001A90CA8FFF7ABFEDDE90C704D460026EB
:100D10008346207800070AD4AB4500DA5D4601A877
:100D2000012D04DD411911F8011C302907D04F4570
:100D300002DA17F1040F04DA012082460FE06D1E7B
:100D4000EEE7002F02DCED1B3E4403E0781CA842D6
:100D500000DD7D1CB81B00F1010A4FF00047207830
:100D6000000703D4AA4501DB4FF0FF3A0021B7F199
:100D7000004F0DF143088DF8431024D002202B239F
:100D8000002F01DA7F422D230A21021EA0F101006B
:100D900000DC5FB197FBF1FC97FBF1F201FB1C7CDF
:100DA00017460CF1300C08F801CDEEE7A8F1010070
:100DB00003702188090501D5452100E06521A0F1D6
:100DC000010800F8011C09980FA9A1EB0807FF1DF5
:100DD00000B10120411901EBEA70A1693844081AF9
:100DE000401EA0612078C00602D42046FFF791FD86
:100DF000099828B1D4E901219047206A401C20625B
:100E00002078C00622D52046FFF783FD1EE0002E85
:100E100004DBB34502DD01A8805D00E03020D4E9A9
:100E200001219047206A401C2062761CAAF1010033
:100E30005FEA000A0AD100F073F9C0680168405CFB
:100E4000D4E901219047206A401C2062281EA5F1A8
:100E50000105DCDC07E0D4E9012118F8010B90471B
:100E6000206A401C2062381EA7F10107F3DC2046EF
:100E7000FFF765FD032011B041E6000001694A1C3F
:100E800002610878704700B58FB0CDE901310021CB
:100E9000059105497944CDE9031011466846FFF7ED
:100EA000CFFA0FB000BD0000E5FFFFFF0A6802F8AF
:100EB000010B0A60704710B5436913B1AFF30080AE
:100EC00001E0FFF757FA012010BD127800F124016C
:100ED0000A7000224A700122EDE711684FF0FF32DC
:100EE000E9E700002DE9FF5F15468A460446DFF872
:100EF000AC80F8440027D8E900103E46CDE9001048
:100F000010E03AF816106A4602A800F099FB411C5E
:100F100007D02178890603D5E269391891420DD8A6
:100F20000744761C2078800602D5E069B84205DDCA
:100F3000AE42E6DB3AF816000028E2D1A069C01BF9
:100F4000A0612046FFF7E5FCD8E90010CDE90010CC
:100F5000002017E03AF818106A4602A800F070FB6B
:100F6000B0F1FF3F81460BD000250DF1080B05E0E5
:100F7000D4E901211BF8050090476D1C4D45F7D3BE
:100F800008F10100B0428046E4DB206A3844206268
:100F90002046FFF7D4FCBDE8FF9F0000DEC900003B
:100FA0002DE9F0418046D21D22F007020025D2E94A
:100FB0000002F52915A614D0011E72F1000106DA0F
:100FC0000023D0EB030063EB020211A608E0D8F87F
:100FD00000108B0701D50FA602E0490701D50EA628
:100FE00001251146002408F1240704E000F09CF8D4
:100FF00030323A55641C50EA0102F7D12B46324692
:1010000021464046BDE8F041FFF7BCBC00000000AF
:101010002D0000002B0000002000000030B4002153
:1010200000F1240408E002F00705D208303542EA56
:101030004372DB086554491C52EA0305F3D1046886
:10104000002310A2250708D504F020040C4304D087
:10105000C46901230CA2641EC46130BCFFF792BCBA
:1010600010B5044621461068FFF783FC024620466F
:10107000BDE810400023D1E7D21D22F00701D1E9DD
:101080000023CBE70000000030000000F0B40D4664
:101090000188090502D5214C7C4402E01F4C7C44A8
:1010A0000E34002100F1240608E002F00F071209B7
:1010B000E75D42EA03721B097754491C52EA0307B1
:1010C000F3D102780023120704D5702D06D009B1A0
:1010D000022311342246F0BCFFF754BC0123103424
:1010E000F8E770B504460D4621461068FFF741FC4D
:1010F000024629462046BDE870400023C6E7D21DBF
:1011000022F00703D3E90023C0E70368126843F025
:10111000200303600823C3610023B7E740C8000031
:1011200000487047A00E002030B5B0F10A0271F1FE
:1011300000034FEA900E4EEA817EB0EB0E0061EBA9
:1011400091014FEA101E4EEA017E10EB0E0041EBBA
:1011500011114FEA102E4EEA016E10EB0E0041EB1A
:1011600011214FEA104E4EEA014E10EB0E0041EBFA
:101170001141401841F100014FEAD00040EA4170AE
:101180004FEAD1014FEA810444EA907410EB8005E4
:1011900044EB01046D1944EB0404521BA3414FF0CE
:1011A000000348BF0A3200D530BD401C41F10001A8
:1011B00030BD00002DE9F04F04460D46D21D22F04F
:1011C000070089B0D0E90097484639460CF0B6FAD6
:1011D0000246F80F01D02D2307E02068810701D5D2
:1011E0002B2302E0202101EAC0038DF820300BB14F
:1011F000012000E00020032A824601D0072A04DBF8
:101200002946204600F054F93FE12078800601D4B9
:101210000D2500E0E569C7F30A560D2D49DA0021D6
:101220004FEA175B08464FF00000002F00F4400023
:1012300007DA00EB80004FF4400100EBD07001EAC8
:1012400060008115012901DD4FF0FF3100224FEAD6
:10125000850CBCF1180F06D31346ACF118004FF003
:101260008052C24003E04FF4801323FA0CF30CF1D8
:101270000C0CBCF1200F04D3ACF1200C09FA0CF0DB
:1012800001E007FA0CF000294FF0004801DD18B921
:101290000FE00ED140450CD319EB02095F4121B993
:1012A000404502D19F4329EA0209BBEB175F00D0FA
:1012B000761C2088000502D57B48784402E07A48F5
:1012C0007844193808AA302302F80A30037C0AF15E
:1012D0000101002E0AF1020A53546A4602DC4FF063
:1012E000300101E04FF031014FF001088DF800109E
:1012F00002D0A6F2FF3603E059EA470100D06B4E58
:10130000002D02DC2178090704D54FF002082E21B8
:101310008DF80110C44600210BE0C7F303433F01E1
:10132000C35C491C6D1E02F80830052908F101084C
:1013300001DA002DF1DC00210CE000EB1973491CEF
:101340001B786D1E082902F808304FEA091908F1C8
:10135000010801DA002DF0DC21688B0602D516E0C9
:10136000A8F10108E04505DD02EB080313F8013C94
:10137000302BF5D0B8F1000F09DD02EB080313F8AC
:10138000013C2E2B03D1090701D4A8F10108002D3F
:1013900005DD3E2102F808106D1E08F10108407CB1
:1013A000002E02F8080008F1010804DA2D20764228
:1013B00002F8080002E02B2002F808000A214FF48E
:1013C0007A70864208F101080BDB96FBF0F33033AC
:1013D00002F8083096FBF0F308F1010800FB1366F1
:1013E00001E0642E0CDB642096FBF0F3303302F84E
:1013F000083096FBF0F308F1010800FB136601E0EA
:101400000A2E06DB96FBF1F0303002F8080008F1F6
:10141000010896FBF1F001FB1060303002F8080083
:10142000A16908F1010808EB050202EB0A00081A9D
:10143000A0612078C00602D42046FFF76AFA216A2C
:1014400008AE01EB0A00206204E0D4E9012116F89D
:10145000010B9047BAF1010AF7D22078C00602D5F5
:101460002046FFF756FA6E4609E016F8010B3E28B3
:101470000FD0D4E901219047206A401C2062B8F1C6
:101480000108F2D22046FFF75AFA09B00320BDE85E
:10149000F08F206A2844206203E0D4E90121302043
:1014A00090476D1EEBD3F8E759C6000002FCFFFF22
:1014B0002DE9F0411F46044603260168072A01F47E
:1014C000006004DB08B116A505E016A503E008B12D
:1014D00015A500E015A521F010002060A069C01E30
:1014E000A0610FB1401EA0612046FFF712FA4FB174
:1014F000D4E9012138469047206A401C2062C01C74
:10150000206206E0206AFAE7D4E9012115F8010B10
:101510009047761EF8D22046FFF711FABDE8F08119
:101520004E414E006E616E00494E4600696E660087
:1015300010B5436913B1AFF3008001E0FFF7D2FCAF
:10154000012010BD128800F1240182840022C2848F
:101550000122EDE711684FF0FF32E9E72DE9F0478E
:10156000814616468AB0354878440DC88DE80D008E
:1015700032487844801C03AC0DC884E80D0041F665
:101580009B300844372190FBF1F290FBF1F5A5F177
:10159000800501FB12041B3C02D56442012000E0DF
:1015A0000020DFF898A080460027FA44AAF1BE0A7E
:1015B0000EE0E0070AD03246684607EB47010123F8
:1015C0000AEB81010BF083FF8DE8070064107F1C9C
:1015D000002CEED1194F7F44AE3F19E0E80715D03B
:1015E00007EB04100DF1180A90E80E008AE80E00CF
:1015F000C068F04201D1981908903246012306A92B
:1016000003A80BF064FF03AB83E807006D10641CB4
:10161000002DE3D14FF0010332466946B8F1000FC7
:1016200003A802D00BF03EFF01E00BF050FFC9E928
:101630000001C9F808200AB0BDE8F0873CC40000EA
:101640002DE9F04116460C46054600F047F80368C0
:1016500093F80101012807D0FF2C12D8185D80B142
:1016600001202C70BDE8F081D3F8070132462146F5
:1016700003F20713C7182846BC46BDE8F041002313
:1016800060474FF0FF30EDE700487047800E0020C4
:101690007546FFF7F9FFAE4605006946534620F050
:1016A0000700854618B020B5FEF72AFEBDE82040A9
:1016B0004FF000064FF000074FF000084FF0000B0E
:1016C000AC46ACE8C009ACE8C009ACE8C009ACE87D
:1016D000C00921F007018D467047000010B5FFF7E3
:1016E0001FFD001D10BD00BFB9C0000010B50446AD
:1016F000AFF300802046BDE81040FEF7ECBD0000CF
:101700004FF0013C50F8042B51F8043B9A4221D190
:10171000A2EB0C03934313EACC1317D150F8042B1C
:1017200051F8043B9A4215D1A2EB0C03934313EA00
:10173000CC130BD150F8042B51F8043B9A4209D139
:10174000A2EB0C03934313EACC13DBD04FF0000061
:10175000704700BFD01A01BAB1FA81F101F0180147
:1017600022FA01F0CB40DBB2C0B2C01AC1F12001B5
:101770002CFA01F3D11A914311EAC311E6D1704753
:1017800001491820ABBEFEE72600020070470000AA
:1017900010B50446D0F82401B4F8281182680A4232
:1017A00008D182680A4205D182680A4202D1826861
:1017B0000A42F3D0204600F0A5F9002818BF10BD5A
:1017C0002046012100F0D8F800B110BD20460121CB
:1017D0000022FF23BDE8104000F0B6BCF0B585B094
:1017E000044688180C2314308DF804300B0A8DF849
:1017F0000610110A8DF80710010A8DF809102168EA
:1018000040F27005C2F200058DF805308DF8082011
:101810008DF80A00B1B340F20C01C2F20001096870
:1018200040F2EF10ADF80B00080E8DF80D00080C1B
:101830008DF80E00080A8DF80F000120ADF8110098
:1018400007208DF810108DF81300002604F10E000B
:1018500040F20311A680A6602673A4F81261FFF778
:101860000CF82E7020680DF10B0109224FF0FF33A8
:1018700003F0E6F9206801A907224FF0FF3303F0D7
:10188000DFF900BF2878012808D02878012805D082
:101890002878012802D028780128F3D1206841F265
:1018A0001811C2F20001884202D0207C05B0F0BDC0
:1018B00041F26021C2F200014A7808782271607119
:1018C00008798B7860724879E3722072CB79087A54
:1018D0008A79E373A0732273E289CE78487A042A66
:1018E000A672207408D3131F033A032B02F0030CD3
:1018F00004D20A22002519E00A2331E022F0030E67
:101900000A22002596B246F001038E5D67197E74A7
:10191000CB5C961CBB74B3B2CB5CD61CFB74B3B26D
:10192000CB5C04350432AE453B75EBD1BCF1000F06
:10193000134615D097B2CF5D531C2544BCF1010F5F
:101940006F740DD09BB2CB5C02F1020EAB74BCF194
:10195000020F734604D01FFA8EF3CF5CD31CEF74D2
:101960009AB28A5C013384F813219AB2895C84F8B4
:10197000121105B0F0BD0000F0B585B00446C81DD9
:101980008DF80810010A8DF80910216840F27005E1
:101990000222C2F200058DF807208DF80A00B9B3C3
:1019A00040F20C01C2F20001096840F2EF10ADF8FC
:1019B0000B00080E8DF80D00080C8DF80E00080ABB
:1019C0008DF80F000120ADF8110004208DF81010E3
:1019D0008DF81300002604F10E0040F20311A680DA
:1019E000A6602673A4F81261FEF747FF2E702068E8
:1019F0000DF10B0109224FF0FF3303F021F92068AC
:101A00000DF1070104224FF0FF3303F019F900BF75
:101A10002878012808D02878012805D028780128BE
:101A200002D028780128F3D1206841F21811C2F2BF
:101A30000001884202D0207C05B0F0BD41F2602157
:101A4000C2F200014A7808782271607108798B78B7
:101A500060724879E3722072CB79087A8A79E373ED
:101A6000A0732273E289CE78487A042AA672207481
:101A700008D3131F033A032B02F0030C04D20A22EB
:101A8000002519E00A2331E022F0030E0A22002586
:101A900096B246F001038E5D67197E74CB5C961C8E
:101AA000BB74B3B2CB5CD61CFB74B3B2CB5C043555
:101AB0000432AE453B75EBD1BCF1000F134615D097
:101AC00097B2CF5D531C2544BCF1010F6F740DD04C
:101AD0009BB2CB5C02F1020EAB74BCF1020F7346F9
:101AE00004D01FFA8EF3CF5CD31CEF749AB28A5CD9
:101AF000013384F813219AB2895C84F8121105B07D
:101B0000F0BD0000F0B583B0044605218DF8021049
:101B1000216840F270050120C2F20005ADF8000016
:101B2000A1B340F20C02C2F20002126840F2EF11BF
:101B3000ADF80310110E8DF80510110C8DF806107C
:101B4000110AADF8090003208DF807108DF80B007D
:101B5000002604F10E0040F203118DF80820A68043
:101B6000A6602673A4F81261FEF787FE2E70206827
:101B70000DF1030109224FF0FF3303F061F82068F3
:101B8000694603224FF0FF3303F05AF82878012802
:101B900008D02878012805D02878012802D0287894
:101BA0000128F3D1206841F21811C2F200018842E5
:101BB00002D0207C03B0F0BD41F26021C2F20001EE
:101BC0004A7808782271607108798B786072487958
:101BD000E3722072CB79087A8A79E373A073227357
:101BE000E289CE78487A042AA672207408D3131F9B
:101BF000033A032B02F0030C04D20A22002519E059
:101C00000A2331E022F0030E0A22002596B246F0A4
:101C100001038E5D67197E74CB5C961CBB74B3B2F6
:101C2000CB5CD61CFB74B3B2CB5C04350432AE453E
:101C30003B75EBD1BCF1000F134615D097B2CF5DC9
:101C4000531C2544BCF1010F6F740DD09BB2CB5CCB
:101C500002F1020EAB74BCF1020F734604D01FFAFE
:101C60008EF3CF5CD31CEF749AB28A5C013384F894
:101C700013219AB2895C84F8121103B0F0BD000000
:101C8000D0F824118968B0F82801084018BF012055
:101C900070470000CA69002A08BF4FF0FF32C0F841
:101CA0002C210A6A002A08BF4FF46142C0F8302193
:101CB0000A68002A026004BF4FF0FF30704710B579
:101CC00001F1040E9EE80C50D1E90541C0F8142141
:101CD000C0F81831C0F81CC1C0F820E1C0E9494182
:101CE000642001F011FA002010BD000070B5044618
:101CF000D0F82401B4F828210D4600BF81681142B4
:101D000008D18168114205D18168114202D18168F0
:101D10001142F3D02046FFF7F5FE064628B92046CB
:101D20000121FFF729FE064610B1304670BD00BF05
:101D3000204601210022FF23002600F005FA00289A
:101D4000F3D0D4F82401B4F8281100BF82680A4205
:101D500008D182680A4205D182680A4202D18268AB
:101D60000A42F3D02046FFF7CDFE06460028DCD11C
:101D700020460221FFF700FE06460028D5D1204666
:101D800000F022F906460028CFD1204602212A463B
:101D9000BDE8704000F0AABAF0B585B0054601F183
:101DA0001E008DF80810010A8DF80910296840F20C
:101DB000700614461922C2F200068DF807208DF82D
:101DC0000A00B9B340F20C01C2F20001096840F206
:101DD000EF10ADF80B00080E8DF80D00080C8DF813
:101DE0000E00080A8DF80F000120ADF81100042044
:101DF0008DF810108DF81300002705F10E0040F249
:101E00000311AF80AF602F73A5F81271FEF735FD97
:101E1000377028680DF10B0109224FF0FF3302F0F3
:101E20000FFF28680DF1070104224FF0FF3302F085
:101E300007FF00BF3078012808D03078012805D08E
:101E40003078012802D030780128F3D1286841F297
:101E50001811C2F20001884261D141F26020C2F241
:101E60000000427801782A7169710179837869727A
:101E70004179EB722972C379017A8279EB73A97384
:101E8000E989C7782A73427A0429AF722A7409D380
:101E90000A1F0339032A01F0030E05D20A21002389
:101EA0001AE000BF0A2631E021F0030C0A210023CA
:101EB0008FB247F00102C75DEE187774825C8F1C09
:101EC000B274BAB2825CCF1CF274BAB2825C0433D0
:101ED00004319C453275EBD1BEF1000F0E4615D092
:101EE0008AB2825C4E1C2B44BEF1010F5A740DD095
:101EF000B2B2825C01F1020CBEF1020F66469A7426
:101F000004D01FFA8CF2825CCE1CDA74B1B2415C50
:101F1000721C85F8131191B2405C85F81201687C3F
:101F20002070A87C6070E87CA070287DE070687DDF
:101F30002071A87D6071E87DA071287EE071687EC7
:101F40002072A87E6072E87EA072287FE072687FAF
:101F50002073A87F6073E87FA07395F82000E0737A
:101F600095F82100207495F82200607495F82300FC
:101F7000A07495F82400E07495F82500207595F874
:101F80002600607595F82700A07595F82800E07583
:101F900095F82900207695F82A00607695F82B00B0
:101FA000A07695F82C00E07695F82D00207795F82E
:101FB0002E00607795F82F00A07795F83000E07735
:101FC000287C05B0F0BD0000F0B583B00446216860
:101FD000052040F27005ADF800000920C2F20005AE
:101FE0008DF80200B1B340F20C01C2F200010968A1
:101FF00040F2EF10ADF80300080E8DF80500080C54
:102000008DF80600080A8DF807000120ADF80900D8
:1020100003208DF808108DF80B00002604F10E0047
:1020200040F20311A680A6602673A4F81261FEF7A1
:1020300024FC2E7020680DF1030109224FF0FF33BC
:1020400002F0FEFD2068694603224FF0FF3302F0E4
:10205000F7FD00BF2878012808D02878012805D08E
:102060002878012802D028780128F3D1206841F28D
:102070001811C2F20001884202D0207C03B0F0BDEA
:1020800041F26021C2F200014A7808782271607141
:1020900008798B7860724879E3722072CB79087A7C
:1020A0008A79E373A0732273E289CE78487A042A8E
:1020B000A672207408D3131F033A032B02F0030CFB
:1020C00004D20A22002519E00A2331E022F0030E8F
:1020D0000A22002596B246F001038E5D67197E74D0
:1020E000CB5C961CBB74B3B2CB5CD61CFB74B3B296
:1020F000CB5C04350432AE453B75EBD1BCF1000F2F
:10210000134615D097B2CF5D531C2544BCF1010F87
:102110006F740DD09BB2CB5C02F1020EAB74BCF1BC
:10212000020F734604D01FFA8EF3CF5CD31CEF74FA
:102130009AB28A5C013384F813219AB2895C84F8DC
:10214000121103B0F0BD0000F0B585B00446881848
:1021500018448DF80410110A0D308DF80510190A75
:102160008DF80710010A04258DF8091021688DF8F3
:10217000035040F27005C2F200058DF806208DF87C
:1021800008308DF80A00B9B340F20C01C2F2000128
:10219000096840F2EF10ADF80B00080E8DF80D0045
:1021A000080C8DF80E00080A8DF80F000120ADF81C
:1021B000110008208DF810108DF81300002604F18E
:1021C0000E0040F20311A680A6602673A4F81261E7
:1021D000FEF753FB2E7020680DF10B0109224FF022
:1021E000FF3302F02DFD20680DF1030108224FF0AE
:1021F000FF3302F025FD00BF2878012808D0287899
:10220000012805D02878012802D028780128F3D1A8
:10221000206841F21811C2F20001884202D0207CED
:1022200005B0F0BD41F26021C2F200014A780878A1
:102230002271607108798B7860724879E37220723C
:10224000CB79087A8A79E373A0732273E289CE7816
:10225000487A042AA672207408D3131F033A032B6A
:1022600002F0030C04D20A22002519E00A2331E00F
:1022700022F0030E0A22002596B246F001038E5D7D
:1022800067197E74CB5C961CBB74B3B2CB5CD61C56
:10229000FB74B3B2CB5C04350432AE453B75EBD175
:1022A000BCF1000F134615D097B2CF5D531C2544E7
:1022B000BCF1010F6F740DD09BB2CB5C02F1020E2A
:1022C000AB74BCF1020F734604D01FFA8EF3CF5CDF
:1022D000D31CEF749AB28A5C013384F813219AB24A
:1022E000895C84F8121105B0F0BD0000F0B585B02E
:1022F0000446881800F10D038DF80610110A8DF8B8
:102300000710190A8DF80910216840F2700506209F
:10231000C2F200058DF805008DF808208DF80A300E
:10232000B1B340F20C02C2F20002126840F2EF11A7
:10233000ADF80B10110E8DF80D10110C8DF80E105C
:10234000110A8DF80F100121ADF811108DF813004E
:10235000002604F10E0040F203118DF81020A68033
:10236000A6602673A4F81261FEF787FA2E70206823
:102370000DF10B0109224FF0FF3302F061FC2068E0
:102380000DF1050106224FF0FF3302F059FC00BFAA
:102390002878012808D02878012805D02878012835
:1023A00002D028780128F3D1206841F21811C2F236
:1023B0000001884202D0207C05B0F0BD41F26021CE
:1023C000C2F200014A7808782271607108798B782E
:1023D00060724879E3722072CB79087A8A79E37364
:1023E000A0732273E289CE78487A042AA6722074F8
:1023F00008D3131F033A032B02F0030C04D20A2262
:10240000002519E00A2331E022F0030E0A220025FC
:1024100096B246F001038E5D67197E74CB5C961C04
:10242000BB74B3B2CB5CD61CFB74B3B2CB5C0435CB
:102430000432AE453B75EBD1BCF1000F134615D00D
:1024400097B2CF5D531C2544BCF1010F6F740DD0C2
:102450009BB2CB5C02F1020EAB74BCF1020F73466F
:1024600004D01FFA8EF3CF5CD31CEF749AB28A5C4F
:10247000013384F813219AB2895C84F8121105B0F3
:10248000F0BD00002DE9F04184B00546884629687A
:102490001D2040F27006ADF804002120C2F20006B3
:1024A0008DF80600B1B340F20C01C2F200010968D8
:1024B00040F2EF10ADF80700080E8DF80900080C87
:1024C0008DF80A00080A8DF80B000120ADF80D0008
:1024D00003208DF80C108DF80F00002705F10E0079
:1024E00040F20311AF80AF602F73A5F81271FEF7B1
:1024F000C4F9377028680DF1070109224FF0FF3346
:1025000002F09EFB286801A903224FF0FF3302F07E
:1025100097FB00BF3078012808D03078012805D01B
:102520003078012802D030780128F3D1286841F2B0
:102530001811C2F20001884202D0287C61E000BF7D
:1025400041F26021C2F200014A7808782A7168716C
:1025500008798B7868724879EB722872CB79087A9F
:102560008A79EB73A8732A73EA89CF78487A042AA8
:10257000AF72287408D3131F033A032B02F0030C25
:1025800004D20A22002619E00A2331E022F0030EC9
:102590000A22002697B247F00104CF5DAB195F74A1
:1025A0000C5D971C9C74BCB20C5DD71CDC74BCB277
:1025B0000C5D04360432B6451C75EBD1BCF1000F3E
:1025C000134615D097B2CF5D531C2E44BCF1010FBA
:1025D00077740DD09BB2CB5C02F1020EB374BCF1E8
:1025E000020F734604D01FFA8EF3CF5CD31CF7742E
:1025F0009AB28A5C013385F813219AB2895C85F816
:102600001211B5F8111009BA090CA8F8001004B09D
:10261000BDE8F0812DE9F0418CB080461078537808
:1026200095780844D478184428441379204455797F
:10263000184493792844D5791844137A2844557A54
:102640001844937A2844D57A1844137B2844557B40
:102650001844937B2844D57B1844137C2844557C2C
:102660001844937C2844D57C1844137D2844557D18
:102670001844937D2844D57D1844137E2844557E04
:102680001844937E2844D57E8DF8041011681844B0
:10269000137F2844557FCDF8051011691844937FA6
:1026A0002844D57FCDF81510118B184418232844E1
:1026B0008DF803305368ADF81D10D17E3D3095681C
:1026C000CDF8093053698DF82010010A8DF82510D6
:1026D000D8F80010D468CDF80D50CDF81930937E9D
:1026E000D26940F27005C2F20005CDF811408DF8B4
:1026F0001F30CDF821208DF82600D9B340F20C010F
:10270000C2F20001096840F2EF10ADF82700080E90
:102710008DF82900080C8DF82A00080A8DF82B0086
:102720000120ADF82D0024208DF82C108DF82F00FD
:10273000002408F10E0040F20311A8F80440C8F884
:10274000084088F80C40A8F81241FEF796F82C7063
:10275000D8F800000DF1270109224FF0FF3302F0F5
:102760006FFAD8F800000DF1030124224FF0FF3377
:1027700002F066FA2878012808D02878012805D0C8
:102780002878012802D028780128F3D1D8F8000051
:1027900041F21811C2F20001884205D098F81000E9
:1027A0000CB0BDE8F08100BF41F26021C2F200012F
:1027B0004A78087888F8042088F8050008798B782A
:1027C00088F80900487988F80B3088F80800CB7938
:1027D000087A8A7988F80F3088F80E0088F80C207B
:1027E000B8F80E20CD78487A042A88F80A5088F87C
:1027F000100009D3131F033A032B02F0030C05D278
:102800000A2200251BE000BF0A2332E022F0030366
:102810000A22002594B244F001060C5D08EB05077E
:102820007C748E5D941CBE74A6B28E5DD41CFE7446
:10283000A6B28E5D04350432AB423E75EAD1BCF1DE
:10284000000F134615D097B2CF5D531C4544BCF121
:10285000010F6F740DD09BB2CB5C02F1020EAB7412
:10286000BCF1020F734604D01FFA8EF3CF5CD31C69
:10287000EF749AB28A5C013388F813219AB2895CAA
:1028800088F812110CB0BDE8F0810000FEE70000EE
:1028900041F28C00C2F2000000F04EBA41F2480052
:1028A000C2F2000000F048BA70470000F0B581B0F5
:1028B0004EF21806CEF200063768054600F038FDE5
:1028C000044605EBC500B7EBC00F4FEAC00517D2B1
:1028D00000F02EFDA042FBD0781B00F5803000F503
:1028E000CA5000BF3168884213D23168884210D282
:1028F000316888420DD231688842F3D309E000BFC5
:102900007D1B00BF3068854203D200F011FDA0425C
:10291000F8D001B0F0BD00000168084780B582B072
:10292000DDF810C0D0F810E0CDF800C0F04702B0DC
:1029300080BD000010B582B0DDE904CE4468CDE969
:1029400000CEA04702B010BD82B070B5A2B002AEFA
:102950000C46054630468021CDE92623FDF7AFFF22
:1029600026AA304621460192FDF7DCFCAA6A2846D9
:102970003146904722B0BDE8704002B07047000079
:102980002DE9F041A2B002AD0E460746284680214F
:102990001C469046FDF793FF28AA2846214601923F
:1029A000FDF7C0FC7C6A3846314642462B46A047BC
:1029B00022B0BDE8F0810000D0F818C060470000E8
:1029C000B0B5054612301446FDF746FE05F132005B
:1029D0002146BDE8B040FDF73FBE0000B0B582B073
:1029E000044600F0A5FC40F6F465C2F20005D5E906
:1029F0000112411A91421FD929686860052917D828
:102A0000DFE801F0041E2C3A527000BFB4F8580001
:102A1000616D00040861052000F076FBB4F85800F1
:102A2000616D086129684FF4FA60A860481C28604D
:102A3000286802B0B0BD00BF4FF0FF3002B0B0BD9B
:102A400060684FF2BB51C0F60001FDF7C7FD37A229
:102A500000281CBF022028601AE000BF60684FF207
:102A6000BB51C0F60001FDF7B9FD00281CBF0320D3
:102A700028602AA20CE000BF60684FF2BB51C0F68C
:102A80000001FDF7ABFD00281CBF042028601FA239
:102A900020464FF47A714FF47A7400F04BF8AC6032
:102AA000286802B0B0BD00BF60684FF2BB51C0F6ED
:102AB0000001FDF793FD00281CBF0520286004F1EC
:102AC000120304F1320C0BA220464FF47A71CDF8B8
:102AD00000C000F02FF841F28830A860286802B0EA
:102AE000B0BD00BF0020A860012084F85C00286809
:102AF00002B0B0BD41542B43574A41503D2225738B
:102B0000222C222573220D0A0000000041542B4381
:102B100057444843503D312C310D0A0041542B435A
:102B2000574D4F44453D310D0A00000041540D0AF8
:102B30000000000081B0F0B582B00446079315464E
:102B4000228AC0680E461146FDF797FEE06807AA84
:102B500029460192FDF7E6FB00F0EAFB871900BF6A
:102B6000E66825683046FDF79BFD82B2284631466F
:102B700002F022F9054600F0DBFBB84201D8002D37
:102B8000EED1284602B0BDE8F04001B07047000029
:102B900041F218144FF2CC25C2F20004C0F6000531
:102BA000EFF3108072B600BF2046294608224FF08E
:102BB000FF3302F045F84FF47A7000F0A5FAF3E71E
:102BC000014690F82100022816D10868D1E90FC308
:102BD000026822F00E020260026822F00102026026
:102BE000012000FA03F2CCF8042081F82100002033
:102BF000002281F8202070470420886301200022F1
:102C000081F820207047000090F82110022927D178
:102C1000026840F2040C1368C4F2020C23F00E03A5
:102C2000136013680CF17C018A4223F001011160EA
:102C30001AD940F20841C4F202018A4248D040F257
:102C40001C41C4F202018A4246D040F23041C4F233
:102C500002018A4244D14FF48073CCF800345CE026
:102C600004218163012070474321C4F202018A429A
:102C70000EDD6B21C4F202018A421BDC4421C4F246
:102C800002018A423CD05821C4F202018A4233E058
:102C90000821C4F202018A4236D01C21C4F202018A
:102CA0008A4237D03021C4F202018A4224D14FF443
:102CB000807230E06C21C4F202018A4226D0802169
:102CC000C4F202018A4217D14FF0807223E000BFA4
:102CD0000123CCF8003420E01023CCF800341CE0B1
:102CE0000CF588614FF480338A4208BF4FF480535B
:102CF000CCF8003411E000BF4FF480320BE000BF8D
:102D00004FF4805207E000BF012204E04FF480122C
:102D100001E000BF1022CCF80020012180F8211032
:102D2000426B002180F8201022B180B5904700212D
:102D3000BDE880400846704710B5D0E90FE3D0F8F1
:102D400000C0DEF80020DCF80010DA4054072DD572
:102D500011F004042AD0DCF80010890605D4DCF850
:102D6000001021F00401CCF800100422C4F2020289
:102D700002F17C018C454BD940F20841C4F20201BA
:102D80008C4500F0AF8040F21C41C4F202018C453A
:102D900000F0AC8040F23041C4F202018C4540F0BA
:102DA000A9804FF48061C2F80014F3E0940745D580
:102DB00011F0020442D0DCF80010890608D4DCF8D7
:102DC000001021F00A01CCF80010012180F8211038
:102DD0000422C4F2020202F17C018C454CD940F27B
:102DE0000841C4F202018C4500F0B48040F21C415D
:102DF000C4F202018C4500F0AF8040F23041C4F2D1
:102E000002018C4540F0AA804FF40071AEE000BF93
:102E10004321C4F202018C4544DD6B21C4F202015E
:102E20008C4551DC4421C4F202018C4500F0A280A3
:102E30005821C4F202018C4568E000BF120740F13E
:102E4000C18011F0080108BF10BDDCF8001021F0AE
:102E50000E01CCF80010012101FA03F2CEF8042093
:102E6000816380F82110016B0022002980F8202066
:102E700040F09280A6E000BF4321C4F202018C45DD
:102E800048DD6B21C4F202018C4555DC4421C4F2BB
:102E900002018C4500F084805821C4F202018C4567
:102EA00072E000BF0821C4F202018C4566D01C21EB
:102EB000C4F202018C456BD03021C4F202018C4572
:102EC00024D14FF4806164E06C21C4F202018C458E
:102ED00056D08021C4F202018C4517D14FF0806199
:102EE00057E000BF0421C2F8001453E04021C2F8AB
:102EF00000144FE002F588634FF480219C4508BF21
:102F00004FF48041C2F8001444E000BF4FF4802128
:102F10003FE000BF0821C4F202018C4544D01C21CF
:102F2000C4F202018C4545D03021C4F202018C4527
:102F30002AD14FF400713EE06C21C4F202018C45AD
:102F400034D08021C4F202018C451DD14FF00071B4
:102F500031E000BF022109E0202107E002F588638B
:102F60004FF400319C4508BF4FF40051C2F80014E3
:102F700022E000BF4FF480410BE000BF042108E0D5
:102F80004FF4800105E000BF4FF4003113E000BFB3
:102F900040211160C16AA9B1BDE81040084700BFD7
:102FA0004FF4005107E000BF022104E04FF400118C
:102FB00001E000BF20211160816A0022002980F811
:102FC0002020E9D110BD0000014600284FF001008B
:102FD00008BF70472DE9F04740F2000CC4F2020C24
:102FE0000A684FF6F8330CF5816ECBF6FD73724527
:102FF00038BF03F5806303EB020E4CF6CD43CCF6ED
:10300000CC43AEFB033E6FF003060CF5806506EA89
:103010009E06D1E901A9D1F80C803CBF0025C4F27D
:103020000205C1E90F56022681F82160166843F6B1
:10303000F075AE4346EA0A06D1E9045746EA0906A6
:1030400046EA0806D1E906432E43374327433B436C
:10305000136000228A6381F8210081F8202000207B
:10306000BDE8F0477047000090F820C0BCF1010FA8
:1030700004BF02207047F0B54FF0010E80F820E049
:1030800090F821C0BCF1010F26D14FF0020C80F85E
:1030900021C04FF0000CC0F838C0D0E900C4C56AA8
:1030A000C66BDCF80070102C27F00107CCF800701C
:1030B000006C0EFA00F070600846CCF8043004BFD3
:1030C00010460A46CCF80800CCF80C20DCF80000CA
:1030D00045B140F00E000DE0002180F820100220E4
:1030E000F0BD00BF20F00400CCF80000DCF80000C8
:1030F00040F00A00CCF80000DCF8000040F00100CD
:10310000CCF800000020F0BDB0B5044600F010F986
:10311000054640F20000C2F200000078611C18BFB2
:10312000044400BF00F004F9401BA042FAD3B0BD34
:103130002DE9F04F82B00E68002E00F0EF80A0F174
:103140008042A2F58432870547EA922241F6004781
:1031500040F2004EC4F201070625C4F2010EB84247
:1031600008BF052500244FF001080F234FF0000A87
:103170004FF0000B052A38BF1546009509E000BF47
:103180000E680AF1010A36FA0AF204F1040400F0AA
:10319000C58008FA0AFC16EA0C09F1D04E684FF611
:1031A000FF72C1F21002964212DC122E56D8DFE8EE
:1031B00006F0350B454955555555555555555555F9
:1031C0005555554D510000BFD1F80CB046E000BF39
:1031D0004FF6FF72C1F2210296420FDC0022C1F2CB
:1031E000110296421AD00022C1F21202964215D064
:1031F0000022C1F22102964210D02FE00022C1F23B
:10320000220296420AD00022C1F23102964205D033
:103210000022C1F23202964220D100BF8A684AB130
:10322000012A14BFC0F814C0C0F810C04FF0080B3A
:1032300014E000BF4FF0040B10E000BFCA6802F1B9
:10324000080B0BE04FF0000B08E000BFCA6802F16A
:10325000040B03E0CA6802F10C0B00BF22460646CD
:10326000B9F5807F24BF203A0436376803FA02F5A7
:10327000AF430BFA02F23A433260CA79D2067FF5C5
:103280007FAF41F21807C4F202073A684FF60843CD
:1032900042F001023A603A68CFF6FF7302F0010291
:1032A0000192019A2AF0030272440F25D75804F0C4
:1032B0000C06B540AF43009D05FA06F63743D750DC
:1032C0004E6840F20C45F202DEF8082054BF22EAB4
:1032D000090242EA0902C4F20105CEF808202A6870
:1032E000B70254BF22EA090242EA09022A60DEF864
:1032F0000420B70354BF22EA090242EA0902CEF8C9
:1033000004200F23DEF80020F70354BF22EA09024D
:1033100042EA0902CEF8002032E700BF02B0BDE861
:10332000F08F0000002A08BF090401617047000007
:1033300041F21C60C2F200000068704740F20000D9
:1033400041F21C61C2F20000C2F2000100780A687A
:10335000104408607047000080B542F20000C4F2DB
:103360000200016841F010010160032000F08CF8B8
:103370000F2000F005F800F027F8002080BD0000C5
:1033800070B540F20006C2F2000640F20801327841
:10339000C2F200014FF47A730968B3FBF2F20446FB
:1033A000B1FBF2F1084600F089FB0F2C4FF001054C
:1033B00008D838B94FF0FF3021460022002500F030
:1033C00037F87460284670BD82B041F21800C4F22C
:1033D00002000168022241F001010160016801F070
:1033E000010101910199416841F0805141604068BB
:1033F00000F08050009000980420C4F201000168A1
:1034000062F31A61016002B070470000002848BFF3
:10341000704700F01F01012202FA01F11C2202EAAA
:10342000D0004EF20012CEF2000281507047000030
:1034300010B54EF60C5CCEF2000CDCF80030C3F395
:10344000022E8EF00704042C28BF0424BEF10303CF
:103450004FF0FF3E0EFA04F438BF0023A143994019
:103460000EFA03F39A43114300F00F0200F1604398
:103470000901043A03F564436244002848BF02F19D
:103480000C03197010BD00004EF60C51CEF2000175
:103490000A684FF6FF031A4060F30A2242F0806088
:1034A00040F0FD7008607047002804BF012070479D
:1034B0002DE9F04381B042F20008C4F2020804464C
:1034C000D8F800000D4600F0070088420CD2D8F86A
:1034D000000020F007002843C8F80000D8F80000DA
:1034E00000F00700A8426CD1206841F2040981076E
:1034F000C4F2020917D5410705D5D9F8001041F4E7
:10350000E061C9F80010010705D5D9F8001041F4B1
:103510006051C9F80010D9F80010A26821F0F0013C
:103520001143C9F80010C00742D1D8F8000000F0DC
:103530000700A8420CD9D8F8000020F00700284363
:10354000C8F80000D8F8000000F00700A84238D101
:103550002068410707D5D9F80010E26821F4E0613E
:103560001143C9F80010000708D5D9F800002169F7
:1035700020F4605040EAC100C9F80000D9F80020EA
:1035800002F00C00082841F20020C0F27A0051D16C
:103590004FF25013C2F38341C0F60003595CD203CB
:1035A0003CD440F60010C0F23D00484342E000BF6A
:1035B000606802280AD001282AD159F8041C89031E
:1035C00008D4012001B0BDE8F08300BF59F8041C05
:1035D0008901F6D5D9F8001021F003010843C9F894
:1035E0000000FFF7A5FE064641F28837D9F8000033
:1035F000616800F00C00B0EB810F96D0FFF798FEE9
:10360000801BB842F2D9032001B0BDE8F08300BFAF
:1036100059F8041C8907D4D5DCE700BFD9F800208D
:103620004FF24E13C2F34042C0F600039A5C484387
:10363000B0FBF2F0D9F800104DF6BC22C1F3031133
:10364000C0F60002515C40F2080220FA01F140F29B
:103650000400C2F200000068C2F200021160FFF72D
:103660008FFE002001B0BDE8F083000040F20800AA
:1036700041F20401C2F20000C4F2020100680968CC
:103680004DF6CC22C1F30221C0F60002515CC840C5
:103690007047000040F2080041F20401C2F200004D
:1036A000C4F20201006809684DF6CC22C1F3C221C0
:1036B000C0F60002515CC84070470000002804BFFB
:1036C000012070472DE9F04182B00446007841F2B4
:1036D0000006C007C4F202060CD0706800F00C00AF
:1036E000042840F081803068800303D5606800289A
:1036F00000F04E81207880071BD5706810F00C0F09
:1037000009D0706800F00C00082840F08B807068C9
:10371000C00300F187803068800703D52069012845
:1037200040F036813068616920F0F80040EAC1005D
:1037300030602078000713D4207840072CD4E56946
:10374000002D00F02081706800F00C00082840F087
:10375000AF80012D40F00C81012002B0BDE8F08166
:10376000A069002800F08C800020C4F242200121D2
:10377000C0F88014FFF7DCFD054600BF706A8007C3
:1037800000F1BA80FFF7D4FD401B0228F6D90320D0
:1037900002B0BDE8F08100BFF0695FEAC00808D45C
:1037A000F06940F08050F061F06900F080500090C6
:1037B000009847F20007C4F200073868C0054DD4EE
:1037C000386840F480703860FFF7B2FD054600BFEE
:1037D0003868C00542D4FFF7ABFD401B6428F7D919
:1037E000032002B0BDE8F081706800F00C000828EA
:1037F00003D17068C0033FF576AF6068002800F021
:103800000981B0F5A02F00F01D81B0F5803F00F0D8
:103810001D81306820F480303060306820F48020D2
:1038200017E100BF2069002840F20000C4F24220E6
:1038300000F08C8001210160FFF77AFD054600BF92
:10384000306880073FF56EAFFFF772FD401B02281E
:10385000F6D9032002B0BDE8F08100BFE06800287F
:1038600000F09A80052800F0B180012800F0B280B5
:10387000306A20F001003062306A20F00400ACE0D1
:103880000020C4F242200021C0F88014FFF750FD50
:10389000054600BF706A80077FF54EAFFFF748FD11
:1038A000401B0228F6D9032002B0BDE8F08100BF1A
:1038B0000027C4F2422700203866FFF739FD022DA9
:1038C00005460DD13068800140F1D680FFF730FD0C
:1038D000401B02284FF00300F4D902B0BDE8F0818C
:1038E000306880014FD5FFF723FD401B02284FF0C1
:1038F0000300F5D9F1E700BF40F20800C2F2000072
:10390000006844F6D351C1F26201A0FB0101480AEC
:10391000019000BF00BF0198411E002801913FF4B3
:103920000BAF00BF0198411E002801913FF404AF86
:1039300000BF0198411E002801913FF4FDAE00BF79
:103940000198411E00280191E4D1F5E600210160B3
:10395000FFF7EEFC054600BF306880077FF5E9AE53
:10396000FFF7E6FC401B02284FF00300F4D9B4E750
:103970007068216A00F480328A4209D1616A00F4D9
:103980007010884204D1002002B0BDE8F08100BF71
:10399000012002B0BDE8F081306A20F00100306201
:1039A000306A20F004003062FFF7C2FC054641F2A5
:1039B000883700BF306A800722D5FFF7B9FC401B6B
:1039C000B8424FF00300F5D987E700BF306A40F0F6
:1039D00004003062306A40F001003062FFF7A8FC5A
:1039E000054641F2883700BF306A800708D4FFF7E8
:1039F0009FFC401BB842F7D9032002B0BDE8F0811C
:103A0000B8F1000F3FF59BAEF06920F08050F061F7
:103A100095E600BF306820F480303060306820F4D4
:103A200080203060FFF784FC054600BF30688003CB
:103A30007FF560AEFFF77CFC401B64284FF003006D
:103A4000F4D94AE7306840F480203060306840F4B0
:103A500080303060FFF76CFC054600BF30688003A3
:103A60003FF548AEFFF764FC401B6428F6D90320FD
:103A700002B0BDE8F08100BF206AB0F5803F05D1FB
:103A80007168A26821F40031114371607168626A43
:103A900021F4741111430843706001203866FFF768
:103AA00047FC0446306880013FF56DAFFFF740FCEE
:103AB000001B02284FF00300F4D90EE7411E00203E
:103AC000B0EB116F1CBF012070474EF21002CEF216
:103AD000000251604EF62351CEF20001F0230B702C
:103AE0000721906011607047704700007047000028
:103AF00090F83C20012A4FF0020242D010B580F825
:103B00003D200268D2F804E0D2F808C00C682EF01C
:103B10007003234340F6FF34C4F20004A242536012
:103B200010DCB2F1804F1FD040F20043C4F200031A
:103B30009A4219D040F60003C4F200039A4213D00F
:103B400017E000BF40F60043C4F200039A420BD0D6
:103B500043F20043C4F201039A4205D042F6004307
:103B6000C4F201039A4204D149682CF0800319433E
:103B700091600121002280F83D1080F83C20BDE8D2
:103B80001040104670470000002804BF0120704715
:103B900010B5044690F83D0028B9002084F83C0098
:103BA000204600F01FF8022084F83D002068211D07
:103BB00008F0F0FD012084F8460084F83E0084F807
:103BC0003F0084F8400084F8410084F8420084F803
:103BD000430084F8440084F8450084F83D00002048
:103BE00010BD0000006842F60041C4F201018842A5
:103BF00018BF704780B582B041F21800C4F20200CD
:103C00000168002241F4006101600068002100F4B5
:103C10000060019001981920FFF70AFC192002B0FA
:103C2000BDE88040FFF7F2BB90F83C20012A4FF03E
:103C3000020200F0C58080B580F83D20D0F800C0B9
:103C40004FF67772DCF8083023EA0202CCF808203D
:103C50000B684F2B28DC1F2B44DD202B45D0302B4D
:103C600043D0402B40F0AE80D1F804E0C968DCF8C6
:103C70002030DCF8202022F00102CCF82020DCF8F3
:103C8000182022F0F00242EA011123F00A0242EA6F
:103C90000E02CCF81810CCF82020DCF8081041F007
:103CA000470121F0300180E06F2B27DDB3F5005F85
:103CB00048D0B3F5805F7AD0702B40F08380D1E993
:103CC00001E3C968DCF8082043EA0E0322F47F42CE
:103CD00043EA01211143CCF80810DCF8081041F048
:103CE000770162E00BB1102B6CD1DCF8081021F0E9
:103CF0007001194341F0070157E000BF502B35D048
:103D0000602B5FD1D1F804E0C968DCF82030DCF822
:103D1000202022F01002CCF82020DCF8182022F419
:103D2000704242EA013123F0A00242EA0E12CCF8BE
:103D30001810CCF82020DCF8081041F0670121F0C1
:103D4000100132E0D1E901E3C968DCF8082043EA58
:103D50000E0322F47F4243EA01211143CCF80810FC
:103D6000DCF8081041F480411FE000BFD1F804E006
:103D7000C968DCF82030DCF8202022F00102CCF801
:103D80002020DCF8182022F0F00242EA011123F092
:103D90000A0242EA0E02CCF81810CCF82020DCF817
:103DA000081041F0570121F02001CCF80810002242
:103DB000012180F83D10002180F83C10BDE88040D2
:103DC000104670470122F3E77047000070B50446C3
:103DD0000068C5680669B10716D515F0020113D051
:103DE0006FF002010161012121778069800703D012
:103DF0002046FFF7E9FF05E0204600F08FF8204657
:103E000000F08EF800202077700719D515F0040017
:103E100016D020686FF004010161022121778069CA
:103E200010F4407F04D02046FFF7CEFF06E000BF2D
:103E3000204600F073F8204600F072F8002020774A
:103E4000300717D515F0080014D020686FF008016E
:103E5000016104212177C069800703D02046FFF764
:103E6000B3FF05E0204600F059F8204600F058F86E
:103E700000202077F00619D515F0100016D0206824
:103E80006FF01001016108212177C06910F4407FB3
:103E900004D02046FFF798FF06E000BF204600F060
:103EA0003DF8204600F03CF800202077F00718BFCE
:103EB00015F0010002D1300609D412E020686FF03D
:103EC00001010161204600F02DF8300609D515F0FA
:103ED000800006D020686FF0800101612046FFF766
:103EE00003FE700609D515F0400006D020686FF07B
:103EF00040010161204600F017F8B00658BF70BDC0
:103F000015F0200008D021686FF0200220460A61D9
:103F1000BDE87040FFF7EABD70BD000070470000CB
:103F200070470000704700007047000070B582B015
:103F3000044690F8420020280AD113460A46002978
:103F40004FF0010018BF002B06D102B070BD00BFBA
:103F5000022002B070BD00BF2063002522206563EF
:103F6000A262A385656484F842002168E06B4CF688
:103F7000052C4CF6653E4CF68906C0F6000CC0F6E2
:103F8000000EC0F600060431C0E90ACEC0E90C6597
:103F9000FFF76AF801952068016801914068019077
:103FA0000198206930B300BF206850E8030F2168F2
:103FB00040F4807041E80302E2B1206850E8030F4A
:103FC000216840F4807041E803029AB1206850E80B
:103FD000030F216840F4807041E8030252B1206869
:103FE00050E8030F216840F4807041E80302002A82
:103FF000DAD100BF206850E8050F216840F00100C9
:1040000041E80502BAB3206850E8050F216840F086
:10401000010041E8050272B3206850E8050F2168ED
:1040200040F0010041E805022AB3206850E8050F7E
:10403000216840F0010041E80502002ADAD11AE0C7
:10404000206850E8050F216840F0400041E8050273
:10405000DAB1206850E8050F216840F0400041E8DF
:10406000050292B1206850E8050F216840F0400039
:1040700041E805024AB1206850E8050F216840F088
:10408000400041E80502002ADAD1206B01282FD137
:10409000002000902068016800914068009000981E
:1040A000206850E8030F216840F0100041E8030247
:1040B000DAB1206850E8030F216840F0100041E8B1
:1040C000030292B1206850E8030F216840F010000D
:1040D00041E803024AB1206850E8030F216840F02C
:1040E000100041E80302002ADAD1002002B070BDBE
:1040F000012002B070BD000090F84230202B07D1A3
:1041000000294FF0010318BF002A05D11846704757
:1041100002231846704700BF81B0012303630023C8
:104120004363816222218285C285436480F8421004
:10413000026901681AB1CA6842F48072CA604A69A9
:1041400042F001024A61CA6842F02002CA60026B72
:10415000012A31D1002200920A6800924968009138
:10416000009900BF016851E8031F026841F0100187
:1041700042E80313DBB1016851E8031F026841F014
:10418000100142E8031393B1016851E8031F02686C
:1041900041F0100142E803134BB1016851E8031FDD
:1041A000026841F0100142E80313002BDAD100232A
:1041B00001B01846704700BF012301B01846704790
:1041C00010B541F21811C2F2000188421AD041F232
:1041D0006031C2F20001884218BF10BD41F21C4498
:1041E000C2F200042046FCF75BFA82B241F21810DA
:1041F000C2F2000021464FF0FF33BDE8104000F04E
:104200001FBD00BF40F27000C2F20000012141F268
:104210006014017041F26020C2F20004C2F200009A
:1042200021464FF48072FCF7F6FA20464FF4807175
:10423000FCF745FB41F21810C2F2000021464FF492
:104240008072BDE81040FFF757BF000010B504466C
:104250000068416994F84120212A56D111F080016B
:1042600053D000BF206850E8050F216820F080007F
:1042700041E80502DAB1206850E8050F216820F016
:10428000800041E8050292B1206850E8050F2168DE
:1042900020F0800041E805024AB1206850E8050F8F
:1042A000216820F0800041E80502002ADAD1A06BE5
:1042B000002818BFFEF784FC206850E8030F21682F
:1042C00020F0C00041E80302DAB1206850E8030F93
:1042D000216820F0C00041E8030292B1206850E854
:1042E000030F216820F0C00041E803024AB12068B2
:1042F00050E8030F216820F0C00041E80302002AC3
:10430000DAD1202084F841002068406994F84210F6
:10431000222940F0A78010F0400000F0A38000BFE9
:10432000206850E8050F216820F0400041E80502B0
:10433000DAB1206850E8050F216820F0400041E81C
:10434000050292B1206850E8050F216820F0400076
:1043500041E805024AB1206850E8050F216820F0C5
:10436000400041E80502002ADAD1E06B002818BFBE
:10437000FEF726FC206850E8030F216820F49070B7
:1043800041E80302BAB3206850E8030F216820F423
:10439000907041E8030272B3206850E8030F21686F
:1043A00020F4907041E803022AB3206850E8030F1C
:1043B000216820F4907041E80302002ADAD11AE063
:1043C000206850E8050F216820F0010041E805024F
:1043D000DAB1206850E8050F216820F0010041E8BB
:1043E000050292B1206850E8050F216820F0010015
:1043F00041E805024AB1206850E8050F216820F025
:10440000010041E80502002ADAD1206B012824D1FD
:10441000206850E8030F216820F0100041E80302F3
:10442000DAB1206850E8030F216820F0100041E85D
:10443000030292B1206850E8030F216820F01000B9
:1044400041E803024AB1206850E8030F216820F0D8
:10445000100041E80302002ADAD1202084F842004B
:1044600000202063002010BD70470000B0B582B06E
:10447000044600680168C368426901F02F05202DD9
:1044800003F0200506D12DB1204602B0BDE8B040B2
:1044900008F0D0BB5FEA017C1EBF02F0010E03F4FE
:1044A000907212EB0E0243D1226BCD0618D5012A71
:1044B00016D113F0100213D000210191016801916F
:1044C000416801910199406940063BD4A08DE18D7E
:1044D000E28D002A18BF884240F0F28102B0B0BDE0
:1044E0000A0640F1E78013F0800200F0E38094F8C0
:1044F00041102129F2D1A168B1F5805F03D1216972
:10450000002900F06382216A4A1C22620978416016
:10451000E18C01390A04E184E0D1C16821F0800115
:10452000C160C16841F04001C16002B0B0BD00BFD0
:10453000CA0718BF13F4807240F0D0804A0700F118
:10454000D380D8E0E06B016849688AB2002AC5D000
:10455000A38D9A42C2D2E1858069202800F09E8016
:10456000206850E8030F216820F4807041E80302BE
:10457000DAB1206850E8030F216820F4807041E828
:10458000030292B1206850E8030F216820F4807084
:1045900041E803024AB1206850E8030F216820F483
:1045A000807041E80302002ADAD1206850E8050F44
:1045B000216820F0010041E80502C2B3206850E8FC
:1045C000050F216820F0010041E805027AB3206858
:1045D00050E8050F216820F0010041E8050232B3E0
:1045E000206850E8050F216820F0010041E805022D
:1045F000002ADAD11BE000BF206850E8050F2168CF
:1046000020F0400041E80502DAB1206850E8050FCB
:10461000216820F0400041E8050292B1206850E88E
:10462000050F216820F0400041E805024AB12068EA
:1046300050E8050F216820F0400041E80502002AFB
:10464000DAD1202084F8420000202063206850E85E
:10465000030F216820F0100041E80302DAB120685E
:1046600050E8030F216820F0100041E8030292B1E6
:10467000206850E8030F216820F0100041E8030291
:104680004AB1206850E8030F216820F0100041E88B
:104690000302002ADAD1E06BFEF792FA022060638F
:1046A000A08DE18D401A81B2204602B0BDE8B04035
:1046B000FFF786BD49067FF511AF13F040013FF4C7
:1046C0000DAFC16821F04001C1602021204684F86F
:1046D000411002B0BDE8B04000F0CABB626C42F0CD
:1046E000010262644A0706D5BEF1000F03D0626C76
:1046F00042F0020262648A0706D5BEF1000F03D0C1
:10470000626C42F004026264BCF1000F06D55EEAFE
:10471000050203D0626C42F008026264626C002AF7
:104720003FF4DCAE890604D51DB1204608F082FABC
:1047300020684069616C00F0400001F008014018F9
:1047400000F0B680206850E8030F216820F49070D4
:1047500041E80302BAB3206850E8030F216820F44F
:10476000907041E8030272B3206850E8030F21689B
:1047700020F4907041E803022AB3206850E8030F48
:10478000216820F4907041E80302002ADAD11AE08F
:10479000206850E8050F216820F0010041E805027B
:1047A000DAB1206850E8050F216820F0010041E8E7
:1047B000050292B1206850E8050F216820F0010041
:1047C00041E805024AB1206850E8050F216820F051
:1047D000010041E80502002ADAD1206B012824D12A
:1047E000206850E8030F216820F0100041E8030220
:1047F000DAB1206850E8030F216820F0100041E88A
:10480000030292B1206850E8030F216820F01000E5
:1048100041E803024AB1206850E8030F216820F004
:10482000100041E80302002ADAD1202084F8420077
:104830000020206320684069400640F1C180206864
:1048400050E8050F216820F0400041E80502DAB188
:10485000206850E8050F216820F0400041E805027B
:1048600092B1206850E8050F216820F0400041E82F
:1048700005024AB1206850E8050F216820F0400089
:1048800041E80502002ADAD1E06B002800F09880A8
:104890004CF67D01C0F600014163FEF7B5F9002832
:1048A0003FF41CAEE06B416B02B0BDE8B04008477E
:1048B0002046FFF7D9FD0020606402B0B0BD00BF04
:1048C000401A00BF216851E8031F226821F490714B
:1048D00042E80313BBB3216851E8031F226821F4A7
:1048E000907142E8031373B3216851E8031F2268F3
:1048F00021F4907142E803132BB3216851E8031FA0
:10490000226821F4907142E80313002BDAD11AE0F7
:10491000216851E8051F226821F0010142E80513D2
:10492000DBB1216851E8051F226821F0010142E84E
:10493000051393B1216851E8051F226821F0010198
:1049400042E805134BB1216851E8051F226821F0A8
:10495000010142E80513002BDAD1202184F842102E
:1049600000212163216851E8031F226821F0100112
:1049700042E80313DBB1216851E8031F226821F0EC
:10498000100142E8031393B1216851E8031F226824
:1049900021F0100142E803134BB1216851E8031FD5
:1049A000226821F0100142E80313002BDAD1022221
:1049B00081B22046626302B0BDE8B040FFF700BCA0
:1049C000204602B0BDE8B040FFF74EBD216A31F885
:1049D000022B6FF35F224260216299E5002804BF39
:1049E0000120704710B5044690F8410028B9002016
:1049F00084F84000204600F063F8242084F8410049
:104A00002068D4E90212C36823F40053C360036929
:104A100023F440531A430261D4E904231143C268CA
:104A2000194341F20C639A431143C1604169A26981
:104A300021F44071114343F60002C4F20102904296
:104A4000416103D0FEF712FE02E000BFFEF722FE36
:104A5000D4E90023192148439900B0FBF1F048F252
:104A60001F5CC5F2EB1CA0FB0C314FF69C7349098F
:104A7000C0F6FF7301FB0300322303EB0010A0FB21
:104A80000C03F02000EA531000EB0110C3F34311B4
:104A9000084490601069202120F490401061506912
:104AA00020F02A005061D06840F40050D06000200F
:104AB000606484F8411084F84210606310BD000007
:104AC0002DE9F04186B00446006844F60001C4F2C6
:104AD0000001002788420597CDE90377029739D076
:104AE00043F60001C4F20101884240F0A28041F285
:104AF0001800C4F20200016840F6000441F480414D
:104B000001600168C4F2010401F48041019101993E
:104B1000016802AD41F0040101600068294600F01F
:104B20000400019001984FF400700290022003905D
:104B3000032005902046FEF7FBFA4FF480600290B8
:104B4000002003900120049020462946FEF7F0FA49
:104B5000252466E041F21800C4F20200416802AE6A
:104B600041F480214160416840F21C0801F4802139
:104B7000019101990168C4F2020841F00801016045
:104B80000068314600F00800019001984FF4806001
:104B90000290022003900320059040F60000C4F22A
:104BA000010000F580652846FEF7C2FA4FF4006068
:104BB000CDE902070120049028463146FEF7B8FAF5
:104BC00041F2480508F11400C2F2000580262021B8
:104BD000C5E900072846C5E90276C5E90477C5E9B5
:104BE0000617FEF7F1F9002818BFFDF7D1FFE563BE
:104BF0006C6241F28C05C2F2000510200021C5E96B
:104C000000802846C5E90216C5E90411C5E9061168
:104C1000FEF7DAF9002818BFFDF7BAFFA5636C624A
:104C20002724204600210022FEF702FC2046FEF742
:104C3000EDFB06B0BDE8F081704700007047000052
:104C40002DE9F041044690F8410020281CBF0220C5
:104C5000BDE8F0810D4600294FF0010000F0AA8068
:104C60001646002A08BFBDE8F081002060642120BC
:104C7000984684F84100FEF75BFBA684E684A168B1
:104C80000646B1F5805F02D12069002862D02F4628
:104C90000025E08C002861D018F1010018D0B8F18F
:104CA000000F37D1216808E017F8010B4860E08C4D
:104CB0000138E084E08C002851D00868000673D5E4
:104CC000002FF1D135F8020B00276FF35F20EDE7DD
:104CD000216802E00868000609D40868000606D4C6
:104CE000086800065CBF08685FEA0060F2D51FB183
:104CF00017F8010B05E000BF35F8020B00276FF332
:104D00005F204860E08C0138E084E08C0028E4D12A
:104D100025E000BF216800BF0868000608D4FEF740
:104D200007FB801B404541D82168C868F4E700BFF5
:104D300017B117F8010B04E035F8020B00276FF3E9
:104D40005F204860E08C0138E084E08C0028E3D1EB
:104D500005E000BF0027E08C00289DD1216808688D
:104D600040061FD4B8F1000F1ED018F101000FD17A
:104D70000868400616D40868400613D40868400640
:104D800010D4086840064FF00000F1D50FE000BFD6
:104D9000FEF7CEFA801B404508D82068C16800683D
:104DA0004006F5D5002002E0FEF7C2FA03202021DC
:104DB00084F84110BDE8F08170B5044690F84100D8
:104DC00020281CBF022070BD00294FF001004DD0EB
:104DD000002A134608BF70BD4FF0000C212021624D
:104DE000A384E384C4F844C084F841002268A06B23
:104DF0004CF67D3E4CF62D454CF68906C0F6000E6D
:104E0000C0F60005C0F600060432C0E90AE5C0E9B4
:104E10000C6CFEF729F920686FF04001016000BFBB
:104E2000206850E8050F216840F0800041E8050245
:104E3000DAB1206850E8050F216840F0800041E8B1
:104E4000050292B1206850E8050F216840F080000B
:104E500041E805024AB1206850E8050F216840F09A
:104E6000800041E80502002ADAD1002070BD000070
:104E700041F26031C2F20001884218BF7047B0B5FC
:104E800041F26034C2F200042046FFF7DFF941F23C
:104E90001C45C2F2000528464FF48071FBF70FFD58
:104EA000204629464FF48072FFF740F841F248004F
:104EB000C2F200000068016821F004010160BDE851
:104EC000B040704770470000FEE700002DE9F04F4A
:104ED0008DB00446FEF72CFA40F60C71C2F20001C8
:104EE0000A68821A142A04D3B4F840200860A4F88F
:104EF0004220A588D4F80090A0682169A269C9F869
:104F00001050B4F80CB007464FEA0B430593036109
:104F1000A08A4FEA054C0304019008930B610846F0
:104F2000A18B02910904CDE906211161216A0B913F
:104F30008968A38C194018BF0121A26AA4F8401007
:104F400004929268A68D039632421CBF0221A4F8F7
:104F50004010226B0C929668A28E0A9216421CBFD9
:104F60000321A4F84010D4F83880D8F80860A28F44
:104F7000099216421CBF0421A4F84010C9F810C0C1
:104F8000C7F810B0089A1E460261DDE906E2CEF8C5
:104F900010200B9D4246AD681D421CBF0521A4F8A0
:104FA0004010DDF810A0DAF80850DDF80CB015EA72
:104FB0000B0F1CBF0621A4F840100C9DAD68DDF856
:104FC000288015EA080F1CBF0721A4F8401090465E
:104FD0009568099A15421CBF0821A4F84010C9F829
:104FE00010C0059D3D61019A0261079ACEF810201C
:104FF0000B9B9B6833421CBF0921A4F84010DAF8D0
:10500000083013EA0B0F1CBF0A21A4F840100C9BB8
:105010009B680A9A13421CBF0B21A4F84010D8F8D1
:105020000830099A13421CBF0C21A4F84010C9F89B
:1050300010C03D61089B03610298CEF810000B98E8
:10504000806830421CBF0D21A4F84010DAF8080037
:1050500010EA0B0F1CBF0E21A4F840100C988068BA
:105060000A9A10421CBF0F21A4F84010D8F808007B
:10507000099A104208D01020A4F840000020A4F89B
:1050800044000DB0BDE8F08FB4F842000028F5D020
:105090000029F3D10021A4F84400A4F842100DB077
:1050A000BDE8F08F2DE9F04F85B0B0F860708F4209
:1050B00006D24FF0FF3C604605B0BDE8F08F00BF60
:1050C0009246974206D24FF0FF3C604605B0BDE8DD
:1050D000F08F00BFB0F862606FF0010C9E42EAD31F
:1050E0000E9FBE42E7D3B0F84CC00AF10107D0F8DA
:1050F00048E0A0F864704FEA0C47A0F86630046BF3
:10510000856BD0F85080CEF81070B0F8546032043F
:1051100000920196C8F81020878EB1463E042661A1
:10512000B0F83CB04FEA0B4202922A612761266137
:105130002A6127612661C5F810B0276126612A61BE
:1051400027612661C5F810B0276126612A612761B1
:105150002661C5F810B0276126612A6127612A619E
:10516000CDF81080C8F81090CEF810C0424601F17A
:105170000208DDF800904FF0100C2CEAD82EC2F88F
:105180001090266103930BFA0EF32B612CEA9823FF
:105190000BFA03F3276126612B612CEA58230BFAE3
:1051A00003F3276126612B612CEA18230BFA03F322
:1051B000276126612B612CEAD8130BFA03F32761D0
:1051C00026612B612CEA98130BFA03F32761266101
:1051D0002B612CEA58130BFA03F3276126612B612C
:1051E0002CEA18130BFA03F3276126612B61276160
:1051F000029A2CEA01112A61DDF804E0049B0BFA03
:1052000001F1C3F810E0C3F810902CEAD8030BFAB0
:1052100003F326612B612CEA98030BFA03F3276151
:1052200026612B612CEA58030BFA03F327612661F0
:105230002B612CEA08030BFA03F3276126612B612B
:105240002CEA48030BFA03F3276126612B612CEA51
:1052500088030BFA03F3276126612B612CEAC8034C
:105260000BFA03F3276126612B612761266129610F
:1052700027612A610AF10208049B2CEAD8210BFA63
:1052800001F1C3F810E0C3F81090266129612CEAFF
:1052900098210BFA01F12761266129612CEA582136
:1052A0000BFA01F12761266129612CEA18210BFA1A
:1052B00001F12761266129612CEAD8110BFA01F16D
:1052C0002761266129612CEA98110BFA01F1276107
:1052D000266129612CEA58110BFA01F12761266138
:1052E00029612CEA18110BFA01F127612661296165
:1052F00027612A61C3F810E0B0F85410D0F850903C
:105300000A040492C9F81020858E066B2C043461BF
:10531000878F8B462CEAD803816B07FA03F30B6166
:105320002CEA980307FA03F3356134610B612CEA28
:10533000580307FA03F3356134610B612CEA080363
:1053400007FA03F3356134610B612CEA480307FA6D
:1053500003F3356134610B612CEA880307FA03F328
:10536000356134610B612CEAC8032CEA0A1207FA92
:1053700003F307FA02F24FEA074E356134610B611D
:10538000356134610A613561C1F810E0CDF808B0CB
:10539000C9F810B05A46B0F84CB0D0F848804FEA7F
:1053A0000B43C8F81030DDF810A0C9F810A0346124
:1053B000C1F810E035613461C1F810E03561346145
:1053C0000F6135613461C1F810E0356134610F61FE
:1053D00035613461C1F810E0356134610F613561C8
:1053E00034610F613561C1F810E0C9F81020C8F8C8
:1053F00010B0039AC9F810A0531C2CEAD32207FA64
:1054000002F234610A612CEA932207FA02F2356152
:1054100034610A612CEA532207FA02F235613461E1
:105420000A612CEA132207FA02F2356134610A613B
:105430002CEAD31207FA02F2356134610A612CEAD0
:10544000931207FA02F2356134610A612CEA5312B1
:1054500007FA02F2356134610A612CEA131207FA85
:1054600002F2356134610A613561C1F810E0DDF89E
:1054700008802CEAD30207FA02F2C9F81080C9F8B2
:1054800010A034610A612CEA930207FA02F2356136
:1054900034610A612CEA530207FA02F23561346181
:1054A0000A612CEA030207FA02F2356134610A61EB
:1054B0002CEA430207FA02F2356134610A612CEAF0
:1054C000830207FA02F2356134610A612CEAC302F1
:1054D00007FA02F2356134610A612CEA031207FA15
:1054E00002F2356134610A613561C1F810E0C9F832
:1054F0001080B0F854E0D0F850904FEA0E48C9F848
:105500001080878E066B0E993C0434614B1C858F8E
:105510002CEAD321806B05FA01F101612CEA932179
:1055200005FA01F13761346101612CEA532105FA72
:1055300001F13761346101612CEA132105FA01F1AF
:105540003761346101612CEAD31105FA01F1376149
:10555000346101612CEA931105FA01F1376134617C
:1055600001612CEA531105FA01F1376134610161DF
:105570002CEA131105FA01F12CEAD30237613461E8
:105580000161290405FA02F237610161C9F810E0EE
:10559000C9F81080346102612CEA930205FA02F224
:1055A0003761346102612CEA530205FA02F2376175
:1055B000346102612CEA030205FA02F237613461B8
:1055C00002612CEA430205FA02F23761346102619A
:1055D0002CEA830205FA02F23761346102612CEA97
:1055E000C30205FA02F23761346102612CEA031248
:1055F00005FA02F24FF0000C376134610261376145
:105600000161C9F810E0604605B0BDE8F08F000008
:105610002DE9F04F99B00446B4F86210B0F860007C
:105620000139013889B2009182B22046002100235D
:10563000FFF738FDB4F84CC0D4F848E04FEA0C4707
:10564000206BA16B236DCEF81070B4F854204FEA94
:105650000248C3F81080A58E2E0440F8106FB4F8ED
:105660003C904FEA09470F61056006600F610560D5
:105670000660C1F81090056006600F610560066065
:10568000C1F8109005600660C1F8109005600660D2
:105690000F61056006600F6105600F6101921A617C
:1056A000CEF810C00293C3F81080B4F862300394AF
:1056B000002B1A46059300F07B81039AB2F860A094
:1056C0005FEA0A4200F07481039A1023B2F8702056
:1056D000CDF810A023EAD224189423EA9224169439
:1056E00023EA5224179423EA1224149423EAD214AE
:1056F000159423EA9214129423EA5214139423EA81
:105700004204109423EA820423EA121E23EAD20CF4
:1057100023EA920B23EA520823EA020A119423EAAD
:10572000C20423EA0213189A09FA0EFE09FA02F2D9
:105730000B92169A09FA0CFC09FA02F20A92179ACD
:1057400009FA0BFB09FA02F20992149ACDE90EEB61
:1057500009FA02F20892159ACDF858C009FA02F235
:105760001592129A09FA02F21892139A09FA02F2A1
:10577000179209FA08F21492109A09FA0AF809FA2B
:1057800002F21392119ADDF810A009FA02F21292B5
:1057900009FA04F24FF6FE7411920AEA040209FAB9
:1057A00003F907920022CDE90C9805E0069A059CC2
:1057B0000132A24280F0FC801FFA8AF4DDE9179ED4
:1057C000012CBB46069200F0A0800022023210920B
:1057D00094B2079A0660DDF82C809442C1F81080DC
:1057E000056006600A9F0F6105600660DDF824C051
:1057F000C1F810C005600660DDF820A0C1F810A057
:1058000005600660159A0A6105600660C1F810E03F
:1058100005600660C1F8109005600660DDF838E0AC
:10582000C1F810E00560C1F810B00660169A0A6170
:10583000056006600F9C0C6105600660149A0A61A1
:10584000056006600D9A0A6105600660139B0B6196
:1058500005600660129B0B6105600660119B0B6181
:1058600005600660DDF83090C1F810900560C1F861
:1058700010B00660C1F81080056006600F61056019
:105880000660C1F810C005600660C1F810A0DDF820
:1058900054A005600660C1F810A005600660189B62
:1058A0000B6105600660179B0B6105600660C1F81F
:1058B00010E0DDF860E0149F0560C1F810B00660EC
:1058C000169B0B61056006600C61056006600F6148
:1058D000056006600A61DDE9102CDDE9123805601B
:1058E0000660C1F81080056006600B610560066007
:1058F000C1F810C005600660C1F81090DDF85C903A
:105900000560C1F810B07FF461AFDDF810A0DDF8DC
:1059100038E0DDF858C05F46DDF83CB0DDE90C98B2
:105920005FEACA743FF442AF06600B9C0C610560ED
:1059300006600A9B0B6105600660099A0A610560B2
:105940000660089A0A6105600660159A0A6105609A
:105950000660189A0A6105600660179A0A61056078
:105960000660C1F810E005600F610660C1F810C064
:1059700005600660C1F810B005600660149A0A61FF
:1059800005600660C1F8108005600660139A0A6120
:1059900005600660129A0A6105600660119A0A6144
:1059A00005600660C1F8109005600F61FEE600BF5B
:1059B000DDE9011000220161039900204A6619B057
:1059C000BDE8F08F2DE9F04F89B0074603FB03F0E7
:1059D0004FF0FF3ACDE90612019000BF0699CDF8CD
:1059E00014A00AF1010BC81A8A4607990893A1EB83
:1059F0000B018EB281B238460A463346CDF808B064
:105A000004910096FFF74EFBB7F84CC0D7F848E07A
:105A10004FEA0C443A6BBB6BD7F85080CEF810407D
:105A2000B7F854904FEA0940C8F81000B88E010446
:105A30001161BD8F2C041C61106111611C6110612A
:105A400011611D61106111611C61106111611D61A5
:105A5000106111611D61106111611C6110611161A2
:105A60001C6110611C61C8F81090CEF810C0B7F826
:105A70006E10384602F00EFD0898334650441FFA67
:105A800080F9384649464A460096FFF70BFBB7F8BF
:105A90004CC0D7F848E04FEA0C453A6BBB6BD7F8DF
:105AA0005080CEF81050B7F854402504C8F8105074
:105AB000BD8E28041061B98F0E041E61156110613E
:105AC0001E61156110611961156110611E6115611A
:105AD00010611961156110611961156110611E6114
